:1000000000308A00DF2900000A108A100A118207D6
:1000100028340C34013406340A108A100A1182077D
:10002000413444343134303442346934743400342B
:100030000A108A100A118207523445344F343A3478
:10004000203425346C34753400340A108A100A11B7
:1000500082075234453431343A34203425346C34F8
:10006000753400342E3084008313000803194628A9
:100070000130F800F701F70B3B28F80B3A284A301B
:10008000F700F70B41284428800B38280034351836
:100090004B2808124C280816831608128312B5182C
:1000A000532888125428881683168812831235190B
:1000B0005B2808135C280817831608138312B519E8
:1000C0006328881364288817831688130000831216
:1000D0000815831608116C2883120811831608115D
:1000E00083120034B6018316081600308312081AF2
:1000F0000130B6048316881600308312881A013046
:10010000F7000310F70D7708B604831608170030C0
:100110008312081B0130F700F70DF70DFC30F705CF
:100120007708B6048316881700308312881B0130C5
:10013000F700F70DF70DF70DF830F7057708B6045F
:100140003608F800003408108316081008168816C0
:1001500008178817831288148316881000008312EA
:100160000815831608110000831272207808B50064
:100170000811831608110000831208158316081150
:100180000000831272207808B40008118316081149
:1001900008128812081388138312350EF700F03006
:1001A000F70577083404F8007808B400B41FDA289B
:1001B0008316A628B208031DDF280810E0280814BB
:1001C0008316081000008312881083168810000020
:1001D00083120811831608118312330EB4000F30F6
:1001E000B4053408B500472033080F39B400B50012
:1001F0004720003483160812881208138813081148
:1002000008108810831208108316081083128810B3
:100210008316881083120811831608110F30831279
:10022000AE0032200130A3002308033C031C202928
:100230000330B50047200530AE003220A30A142950
:100240000230B5004720A3012308033C031C3129D9
:1002500023080420A400B2012408B300A320A30AA9
:1002600024298A110A12192A2F0B3829B0014C2986
:100270002F08023C031D3F294030B0004C292F08B5
:10028000033C031D46291430B0004C292F08043CC0
:10029000031D4C295430B00001302E02B007300845
:1002A0008038B100B2013108B300A32000342D081A
:1002B0000C3A03196229063A03196A29023A03190A
:1002C00070297529B2010130B300A3200230AE00BD
:1002D00032207B290130AE000230AF0034217B296F
:1002E000B2011030B300A3207B290130B2002D08E9
:1002F000B300A3207B290034AC010408AB002C1010
:10030000831B2C14250EF038A700A707E23EA80097
:10031000323EAA0025080F39A807A807AA07E93E18
:10032000A900A907A907240E0F39A907AA07A90D33
:10033000AA0DAA09AA0D24080F39AA07A70D07308C
:10034000A6000A30AA07A903031CA229A907A8032B
:10035000031CA629A807A703031CAA29A707A6030D
:10036000031CAE2926308400831307302B052B1382
:1003700084072A30040203192B170008F700031D15
:10038000C9292B1BC9292B1ADB29AB19C9292030F4
:10039000CC29AB152B123030F707A5010408A400B7
:1003A0002510831B25147708AD00572124088400ED
:1003B000831325188317840A2B1FB929003484015D
:1003C00083131F308305831603170908C03989007A
:1003D00003131F129F120030031788008312870136
:1003E000880189010313A001A101FF30A2000030A0
:1003F00083168500860087008312A200831688007A
:1004000009148914091583121F179F1783169F1744
:1004100083121F14831603170908C0391F38890077
:1004200003131F129F12FF30031788008312031358
:10043000FA281430AE0032200130AE00AF00342173
:10044000A30123080C20A30AF700AD0057210730B1
:100450002302031D212A1430F8001F08C339780431
:100460009F009F149F18322A83161E088312A00033
:100470001E08A1000930AE000130AF003421A301F5
:1004800023081820A30AF700AD00572105302302E6
:10049000031D402A103084002108A5002008A40074
:1004A0007C21A108031D5D2A2008633C031C5D2AF2
:1004B00083168601013083128600A108031D702A6D
:1004C0002008C73C031C702AA108031D6B2A2008C2
:1004D000633C0318702A831686010230831286005B
:1004E0002108013C031C862A031D7A2A20082C3C83
:1004F000031C862AA108031D812A2008C73C031873
:10050000862A831686010430831286002108013C66
:10051000031CA02A031D902A2008903C031CA02A3B
:100520002108003C0318A02AFF3A031D9B2A20083B
:100530002C3C0318A02A83168601083083128600FB
:100540002108013C031CBA2A031DAA2A2008F43CF6
:10055000031CBA2A2108003C0318BA2AFF3A031DDB
:10056000B52A2008903C0318BA2A83168601103059
:10057000831286002108023C031CD42A031DC42ACE
:100580002008583C031CD42A2108003C0318D42A14
:10059000FF3A031DCF2A2008F43C0318D42A8316FF
:1005A00086012030831286002108023C031CEE2ABB
:1005B000031DDE2A2008BC3C031CEE2A2108013C56
:1005C0000318EE2AFF3A031DE92A2008583C0318B5
:1005D000EE2A831686014030831286002108033CF0
:1005E000031C082B031DF82A2008203C031C082BA1
:1005F0002108013C0318082BFF3A031D032B200898
:10060000BC3C0318082B83168601803083128600B9
:100610002108033C031C2C2B031D122B2008843CB7
:10062000031C2C2B2108023C03182C2BFF3A031D22
:100630001D2B2008203C03182C2B83168601FF302D
:10064000831286006430AE00322083168601831246
:1006500086016430AE0032202108023C03183C2B96
:10066000FF3A031D372B2008843C03183C2B8316CC
:100670008601FF3083128600A001A1011830F80026
:100680001F08C33978049F009F149F18452B8316B9
:100690001E088312A0001E08A1000930AE0002301F
:1006A000AF003421A30123082520A30AF700AD00E1
:1006B000572105302302031D532B103084002108DD
:1006C000A5002008A4007C21A108031D722B20088E
:1006D000633C031C722B0030A2008316870101309B
:1006E00083128700A108031D872B2008C73C031C29
:1006F000872BA108031D802B2008633C0318872B40
:100700000030A2008316870102308312870021087F
:10071000013C031C9F2B031D912B20082C3C031C28
:100720009F2BA108031D982B2008C73C03189F2B63
:100730000030A2008316870104308312870021084D
:10074000013C031CBB2B031DA92B2008903C031C60
:10075000BB2B2108003C0318BB2BFF3A031DB42B15
:1007600020082C3C0318BB2B0030A2008316870105
:100770000830831287002108013C031CD72B031D7E
:10078000C52B2008F43C031CD72B2108003C031880
:10079000D72BFF3A031DD02B2008903C0318D72BF2
:1007A0000030A200831687011030831287002108D1
:1007B000023C031CF32B031DE12B2008583C031CB7
:1007C000F32B2108003C0318F32BFF3A031DEC2BFD
:1007D0002008F43C0318F32B0030A2008316870195
:1007E0002030831287002108023C031C0F2C031DBC
:1007F000FD2B2008BC3C031C0F2C2108013C0318D6
:100800000F2CFF3A031D082C2008583C03180F2C0E
:100810000030A20083168701403083128700210830
:10082000033C031C2B2C031D192C2008203C031C0B
:100830002B2C2108013C03182B2CFF3A031D242CE0
:100840002008BC3C03182B2C0030A2008316870123
:100850008030831287002108033C031C532C031DA6
:10086000352C2008843C031C532C2108023C03181F
:10087000532CFF3A031D402C2008203C0318532C16
:100880000030A20083168701FF3083128700643096
:10089000AE0032200030A200831687018312870148
:1008A0006430AE0032202108023C0318652CFF3A68
:1008B000031D5E2C2008843C0318652C0030A20028
:0E08C00083168701FF30831287002B2A630006
:04400E00F22FFF3F4F
:00000001FF
;PIC16F887
